{
  "_format": "hh-sol-artifact-1",
  "contractName": "WavePortal",
  "sourceName": "contracts/WavePortal.sol",
  "abi": [
    {
      "inputs": [],
      "stateMutability": "payable",
      "type": "constructor"
    },
    {
      "anonymous": false,
      "inputs": [
        {
          "indexed": true,
          "internalType": "address",
          "name": "from",
          "type": "address"
        },
        {
          "indexed": false,
          "internalType": "string",
          "name": "message",
          "type": "string"
        },
        {
          "indexed": false,
          "internalType": "string",
          "name": "emoji",
          "type": "string"
        },
        {
          "indexed": false,
          "internalType": "uint256",
          "name": "timestamp",
          "type": "uint256"
        }
      ],
      "name": "NewWave",
      "type": "event"
    },
    {
      "inputs": [],
      "name": "getAllWaves",
      "outputs": [
        {
          "components": [
            {
              "internalType": "address",
              "name": "waver",
              "type": "address"
            },
            {
              "internalType": "string",
              "name": "message",
              "type": "string"
            },
            {
              "internalType": "string",
              "name": "emoji",
              "type": "string"
            },
            {
              "internalType": "uint256",
              "name": "timestamp",
              "type": "uint256"
            }
          ],
          "internalType": "struct WavePortal.Wave[]",
          "name": "",
          "type": "tuple[]"
        }
      ],
      "stateMutability": "view",
      "type": "function"
    },
    {
      "inputs": [],
      "name": "getTotalWaves",
      "outputs": [
        {
          "internalType": "uint256",
          "name": "",
          "type": "uint256"
        }
      ],
      "stateMutability": "view",
      "type": "function"
    },
    {
      "inputs": [
        {
          "internalType": "address",
          "name": "",
          "type": "address"
        }
      ],
      "name": "lastWavedAt",
      "outputs": [
        {
          "internalType": "uint256",
          "name": "",
          "type": "uint256"
        }
      ],
      "stateMutability": "view",
      "type": "function"
    },
    {
      "inputs": [
        {
          "internalType": "string",
          "name": "_message",
          "type": "string"
        },
        {
          "internalType": "string",
          "name": "_emoji",
          "type": "string"
        }
      ],
      "name": "wave",
      "outputs": [],
      "stateMutability": "nonpayable",
      "type": "function"
    }
  ],
  "bytecode": "0x6080604052606444426200001491906200002c565b62000020919062000093565b60018190555062000129565b6000620000398262000089565b9150620000468362000089565b9250827fffffffffffffffffffffffffffffffffffffffffffffffffffffffffffffffff038211156200007e576200007d620000cb565b5b828201905092915050565b6000819050919050565b6000620000a08262000089565b9150620000ad8362000089565b925082620000c057620000bf620000fa565b5b828206905092915050565b7f4e487b7100000000000000000000000000000000000000000000000000000000600052601160045260246000fd5b7f4e487b7100000000000000000000000000000000000000000000000000000000600052601260045260246000fd5b610dee80620001396000396000f3fe608060405234801561001057600080fd5b506004361061004c5760003560e01c806351872959146100515780639a2cdc081461006d578063a42a46631461008b578063bd43a908146100bb575b600080fd5b61006b60048036038101906100669190610785565b6100d9565b005b610075610373565b6040516100829190610a6c565b60405180910390f35b6100a560048036038101906100a0919061075c565b61037c565b6040516100b29190610a6c565b60405180910390f35b6100c3610394565b6040516100d091906109b5565b60405180910390f35b42610384600360003373ffffffffffffffffffffffffffffffffffffffff1673ffffffffffffffffffffffffffffffffffffffff168152602001908152602001600020546101279190610b43565b10610167576040517f08c379a000000000000000000000000000000000000000000000000000000000815260040161015e90610a4c565b60405180910390fd5b42600360003373ffffffffffffffffffffffffffffffffffffffff1673ffffffffffffffffffffffffffffffffffffffff1681526020019081526020016000208190555060016000808282546101bd9190610b43565b925050819055506102036040518060400160405280600d81526020017f257320686173207761766564210000000000000000000000000000000000000081525033610577565b600260405180608001604052803373ffffffffffffffffffffffffffffffffffffffff16815260200184815260200183815260200142815250908060018154018082558091505060019003906000526020600020906004020160009091909190915060008201518160000160006101000a81548173ffffffffffffffffffffffffffffffffffffffff021916908373ffffffffffffffffffffffffffffffffffffffff16021790555060208201518160010190805190602001906102c892919061063c565b5060408201518160020190805190602001906102e592919061063c565b50606082015181600301555050606460015442446103039190610b43565b61030d9190610b43565b6103179190610c7a565b6001819055503373ffffffffffffffffffffffffffffffffffffffff167f9948ea69be64fc2d742466dc44de105f9529f31023e72065ab6a405bd59bb55483834260405161036793929190610a07565b60405180910390a25050565b60008054905090565b60036020528060005260406000206000915090505481565b60606002805480602002602001604051908101604052809291908181526020016000905b8282101561056e57838290600052602060002090600402016040518060800160405290816000820160009054906101000a900473ffffffffffffffffffffffffffffffffffffffff1673ffffffffffffffffffffffffffffffffffffffff1673ffffffffffffffffffffffffffffffffffffffff16815260200160018201805461044190610c17565b80601f016020809104026020016040519081016040528092919081815260200182805461046d90610c17565b80156104ba5780601f1061048f576101008083540402835291602001916104ba565b820191906000526020600020905b81548152906001019060200180831161049d57829003601f168201915b505050505081526020016002820180546104d390610c17565b80601f01602080910402602001604051908101604052809291908181526020018280546104ff90610c17565b801561054c5780601f106105215761010080835404028352916020019161054c565b820191906000526020600020905b81548152906001019060200180831161052f57829003601f168201915b50505050508152602001600382015481525050815260200190600101906103b8565b50505050905090565b61060f828260405160240161058d9291906109d7565b6040516020818303038152906040527f319af333000000000000000000000000000000000000000000000000000000007bffffffffffffffffffffffffffffffffffffffffffffffffffffffff19166020820180517bffffffffffffffffffffffffffffffffffffffffffffffffffffffff8381831617835250505050610613565b5050565b60008151905060006a636f6e736f6c652e6c6f679050602083016000808483855afa5050505050565b82805461064890610c17565b90600052602060002090601f01602090048101928261066a57600085556106b1565b82601f1061068357805160ff19168380011785556106b1565b828001600101855582156106b1579182015b828111156106b0578251825591602001919060010190610695565b5b5090506106be91906106c2565b5090565b5b808211156106db5760008160009055506001016106c3565b5090565b60006106f26106ed84610aac565b610a87565b90508281526020810184848401111561070a57600080fd5b610715848285610bd5565b509392505050565b60008135905061072c81610da1565b92915050565b600082601f83011261074357600080fd5b81356107538482602086016106df565b91505092915050565b60006020828403121561076e57600080fd5b600061077c8482850161071d565b91505092915050565b6000806040838503121561079857600080fd5b600083013567ffffffffffffffff8111156107b257600080fd5b6107be85828601610732565b925050602083013567ffffffffffffffff8111156107db57600080fd5b6107e785828601610732565b9150509250929050565b60006107fd838361092d565b905092915050565b61080e81610b99565b82525050565b61081d81610b99565b82525050565b600061082e82610aed565b6108388185610b10565b93508360208202850161084a85610add565b8060005b85811015610886578484038952815161086785826107f1565b945061087283610b03565b925060208a0199505060018101905061084e565b50829750879550505050505092915050565b60006108a382610af8565b6108ad8185610b21565b93506108bd818560208601610be4565b6108c681610d67565b840191505092915050565b60006108dc82610af8565b6108e68185610b32565b93506108f6818560208601610be4565b6108ff81610d67565b840191505092915050565b6000610917600883610b32565b915061092282610d78565b602082019050919050565b60006080830160008301516109456000860182610805565b506020830151848203602086015261095d8282610898565b915050604083015184820360408601526109778282610898565b915050606083015161098c6060860182610997565b508091505092915050565b6109a081610bcb565b82525050565b6109af81610bcb565b82525050565b600060208201905081810360008301526109cf8184610823565b905092915050565b600060408201905081810360008301526109f181856108d1565b9050610a006020830184610814565b9392505050565b60006060820190508181036000830152610a2181866108d1565b90508181036020830152610a3581856108d1565b9050610a4460408301846109a6565b949350505050565b60006020820190508181036000830152610a658161090a565b9050919050565b6000602082019050610a8160008301846109a6565b92915050565b6000610a91610aa2565b9050610a9d8282610c49565b919050565b6000604051905090565b600067ffffffffffffffff821115610ac757610ac6610d38565b5b610ad082610d67565b9050602081019050919050565b6000819050602082019050919050565b600081519050919050565b600081519050919050565b6000602082019050919050565b600082825260208201905092915050565b600082825260208201905092915050565b600082825260208201905092915050565b6000610b4e82610bcb565b9150610b5983610bcb565b9250827fffffffffffffffffffffffffffffffffffffffffffffffffffffffffffffffff03821115610b8e57610b8d610cab565b5b828201905092915050565b6000610ba482610bab565b9050919050565b600073ffffffffffffffffffffffffffffffffffffffff82169050919050565b6000819050919050565b82818337600083830152505050565b60005b83811015610c02578082015181840152602081019050610be7565b83811115610c11576000848401525b50505050565b60006002820490506001821680610c2f57607f821691505b60208210811415610c4357610c42610d09565b5b50919050565b610c5282610d67565b810181811067ffffffffffffffff82111715610c7157610c70610d38565b5b80604052505050565b6000610c8582610bcb565b9150610c9083610bcb565b925082610ca057610c9f610cda565b5b828206905092915050565b7f4e487b7100000000000000000000000000000000000000000000000000000000600052601160045260246000fd5b7f4e487b7100000000000000000000000000000000000000000000000000000000600052601260045260246000fd5b7f4e487b7100000000000000000000000000000000000000000000000000000000600052602260045260246000fd5b7f4e487b7100000000000000000000000000000000000000000000000000000000600052604160045260246000fd5b6000601f19601f8301169050919050565b7f576169742031356d000000000000000000000000000000000000000000000000600082015250565b610daa81610b99565b8114610db557600080fd5b5056fea2646970667358221220ad717d9e00f6798ab524e5e7c008b714bdd7386980f7be99618a644814bca5b064736f6c63430008040033",
  "linkReferences": {},
  "deployedLinkReferences": {}
}